:100000000C9434000C943E000C943E000C943E0082
:100010000C943E000C943E000C943E000C943E0068
:100020000C943E000C943E000C943E000C943E0058
:100030000C943E000C943E000C943E000C943E0048
:100040000C943E000C9440000C943E000C943E0036
:100050000C943E000C943E000C943E000C943E0028
:100060000C943E000C943E0011241FBECFEFD8E04C
:10007000DEBFCDBF0E9454000C9467000C940000BA
:100080001F920F920FB60F9211248F938EB58BB9DA
:100090008F910F900FBE0F901F901895249A8CB5DA
:1000A000806C8CBD789408950E944E00389A8FEF32
:1000B0008AB991E088B1892788B92FEF39E688E1BC
:1000C000215030408040E1F700C00000F3CFF894A9
:0200D000FFCF60
:00000001FF
